:020000040800F2
:10000000081200209D01000895250008F92300082A
:100010009125000871070008A52C000800000000C9
:100020000000000000000000000000009D25000806
:10003000810700080000000099250008A12500089C
:10004000B7010008B7010008B7010008B7010008B0
:10005000B7010008B7010008B7010008B7010008A0
:10006000B7010008B7010008B7010008B701000890
:10007000B7010008B7010008B7010008B701000880
:1000800075070008B7010008B7010008B7010008AC
:10009000B7010008B7010008B7010008B701000860
:1000A000B7010008B7010008B7010008B701000850
:1000B000B7010008B7010008B7010008B701000840
:1000C000B7010008B7010008B7010008B701000830
:1000D000B7010008B70100088D2C0008992C000812
:1000E000B7010008B7010008B7010008B701000810
:1000F000B7010008B7010008B7010008B701000800
:10010000B7010008B7010008B7010008B7010008EF
:10011000B7010008B7010008B70100086926000808
:10012000B7010008B7010008B7010008B7010008CF
:10013000B7010008B7010008B7010008B7010008BF
:10014000B7010008B7010008B7010008B7010008AF
:10015000B7010008B7010008B7010008B70100089F
:10016000B7010008B7010008B7010008B70100088F
:10017000B7010008B7010008B7010008000000003F
:10018000B7010008B7010008DFF80CD000F06EFAE4
:1001900000480047613000080812002006488047E8
:1001A00006480047FEE7FEE7FEE7FEE7FEE7FEE75C
:1001B000FEE7FEE7FEE7FEE7552600088901000896
:1001C0002DE9F05F0546002092469B46884606468C
:1001D000814640241BE0284641464746224600F01F
:1001E0007CF853465A46C01A914110D3114618461E
:1001F000224600F063F82D1A67EB01084F462246AD
:100200000120002100F05AF817EB00094E41201E92
:10021000A4F10104DFDC484631462A464346BDE8E6
:10022000F09F40EA01039B0703D009E008C9121FB1
:1002300008C0042AFAD203E011F8013B00F8013BA0
:10024000521EF9D27047D2B201E000F8012B491ECC
:10025000FBD270470022F6E710B513460A46044663
:100260001946FFF7F0FF204610BD00F0004230F0C5
:1002700000400AD0C10D01F56071C0F3160042EADA
:100280000151C208400711437047002001467047E2
:1002900030B50B46014600202022012409E021FA56
:1002A00002F59D4205D303FA02F5491B04FA02F553
:1002B0002844151EA2F10102F1DC30BD202A04DB26
:1002C000203A00FA02F1002070479140C2F1200369
:1002D00020FA03F3194390407047202A04DB203AA8
:1002E00021FA02F00021704721FA02F3D040C2F156
:1002F000200291400843194670472DE9FE4F804681
:1003000081EA0300C00F0C46009021F0004123F069
:100310000045B8EB0200A94105D24046214690466F
:100320001C460B46024623F00040104347D0270DE1
:10033000C7F30A00C3F30A510290401A0190402803
:100340006BDAC3F3130040F4801B0098924620B18F
:100350000023D2EB030A63EB0B0B01985946C0F163
:1003600040025046FFF7AAFF06460D465046594642
:10037000019A00F08DF910EB08006141002487EA32
:10038000115284EAE7731A4340D0009A62B3019A8B
:10039000012A4FEA075215DC001B61EB02014FF006
:1003A000004202EA0752CDE90042001C41F58011EB
:1003B00032462B4600F08DF903B0BDE8F08F404681
:1003C0002146F9E7001B61EB0201001C41F5801397
:1003D00000185B412018A2F5001747EB030140EA23
:1003E000D570B6196D4111E06D084FEA360645EA41
:1003F000C0754FEA0752001B61EB0201001C41F57A
:10040000801149084FEA30000019514132462B460D
:1004100003B0BDE8F04F00F04DB900980122400054
:100420000023D0EB020263EBE073009821464FEA11
:10043000E074B8EB000061EB0401E9E783F00043EE
:100440005BE781F0004158E72DE9FE4F81EA0304A4
:1004500004F0004421F0004100944FF0000B23F021
:10046000004350EA01045ED052EA03045BD0C3F3B8
:100470000A54C1F30A552C44A4F2F3340194A0FBAE
:100480000254C1F3130141F48011C3F3130343F485
:10049000801301FB024400FB034E840A970A44EADE
:1004A000815447EA8357A4FB076802958D0A05FB30
:1004B00007854FEA932C04FB0C542705029D4FEA55
:1004C000065847EA1637B5EB08056EEB070C870EA2
:1004D000920E47EA811742EA8312A7FB0201B6EBAC
:1004E0000B0164EB00042B0D43EA0C335E1844EB64
:1004F0001C50DA465146E7FB0201C5F313044FEAEC
:100500000B3343EA14534FEA0432019C43EA0603D7
:10051000A4F10C040294009CCDE900B400F0D9F8D9
:1005200003B0BDE8F08F00200146F9E72DE9F04D5A
:1005300081EA030404F0004B21F0004514464FF01B
:10054000000A23F0004150EA050220D054EA0102DB
:100550001DD0C5F30A570246C5F31303C1F31300B8
:10056000C1F30A5640F4801543F48013A7EB060844
:10057000101BD64608F2FD3873EB050002D308F1D4
:10058000010801E092185B41B8F1000F03DA002086
:100590000146BDE8F08D00204FF4801106468446E8
:1005A0000EE0171B73EB050705D3121B63EB050366
:1005B00006434CEA010C49084FEA300092185B41AF
:1005C00050EA0107EDD152EA030012D082EA04009A
:1005D00083EA0501084305D0101BAB4106D2012276
:1005E000002306E000224FF0004302E06FF001021A
:1005F00053101AEB06004CEB085110EB0A0041EBCC
:100600000B01BDE8F04D00F055B8C1F30A52C1F33B
:10061000130140F2FF3341F480119A4202DA0020C4
:100620000146704740F233439A42A2F2334202DC61
:100630005242FFF752BEFFF741BE000030B5041E24
:1006400071F1000404DB4FF00044404264EB01010F
:10065000141E73F1000405DB1C464FF000435242A8
:1006600063EB0403994208BF904230BD064C074D2E
:1006700006E0E06840F0010394E807009847103472
:10068000AC42F6D3FFF784FD28400008484000083C
:10069000202A06DBCB17203A41FA02F043EAE07346
:1006A00006E041FA02F3D040C2F120029140084333
:1006B0001946704710B5141E73F1000408DA401C87
:1006C00041F1000192185B411A4301D120F0010071
:1006D00010BD2DE9F04D92469B4611B1B1FA81F261
:1006E00002E0B0FA80F220329046FFF7E7FD0446C0
:1006F0000F4640EA0A0041EA0B0153465A460843B6
:1007000013D0114653EA010019D0C8F140025046F7
:10071000FFF7E3FD05460E46504659464246FFF7B1
:10072000CDFD084305D0012004E020463946BDE850
:10073000F08D0020054346EAE0762C4337430A98C3
:100740006305E40AA0EB08000022FD0A44EA4754CE
:100750000A3002D500200146E9E701051019694178
:10076000DDE9084500196941BDE8F04DA2E7000048
:10077000FEE7000040F68C00C2F2000000F064B812
:1007800070470000EFF3108072B600BFFEE7000074
:1007900070B5866D044600F01DFB94F835100229F3
:1007A0002ED105462068216C026822F016020260F4
:1007B000426922F08002426109B9A16C19B1016855
:1007C00021F008010160016821F001010160006869
:1007D000C00708D000F0FEFA401B052818D8206892
:1007E0000068C007F6D1E06D3F2101FA00F0B0606B
:1007F000012084F835000020002184F8341070BDF9
:10080000802060650120002184F8341070BD00BF95
:1008100020206065032084F83500002184F834101E
:1008200070BD000090F83510022909D1052180F82B
:1008300035100068016821F0010101600020704757
:100840008021416501207047F0B581B00446002049
:10085000009040F20C00C2F200000268D4E9166079
:1008600048F2B51337680821C1F64E33814039424A
:10087000A2FB03250CD0226813685B0708D5136818
:1008800023F004031360B160616D41F00101616503
:1008900001218140394208D022685269120604D5EC
:1008A000B160616D41F0020161650421814039420E
:1008B00008D022681268920704D5B160616D41F0DA
:1008C0000401616510218140394217D02068026817
:1008D000120713D5B16002680168520308D4C90534
:1008E00008D4016821F008010160216C21B905E0FC
:1008F00008033FD4216C09B120468847E16D2020D0
:1009000000FA01F23A4241D020680368DB063DD587
:10091000B26094F835300268052B1BD122F0160224
:100920000260426922F080024261226C0AB9A26C24
:100930001AB1026822F0080202603F208840B060CD
:10094000012084F83500216D0020002984F834004E
:1009500052D157E00168520310D4C90512D401687E
:1009600021F010010160012084F83500002084F896
:10097000340007E0A16C0029BED1BFE7080301D411
:10098000616C00E0E16B09B120468847606DC8B337
:10099000606DC0072ED0052084F835002068A90AB4
:1009A000026822F001020260009A01328A4200923B
:1009B0001AD80268D20717D0009A01328A420092F0
:1009C00012D80268D2070FD0009A01328A420092F0
:1009D0000AD80268D20707D0009A01328A420092F0
:1009E00002D80268D207DFD1012084F83500002048
:1009F00084F83400E16C29B1204601B0BDE8F04034
:100A0000084700BF01B0F0BD2DE9F041044600F0F9
:100A1000E1F9002C4ED00546022084F83500002074
:100A2000216884F83400086820F001000860086834
:100A3000C00708D000F0CEF9401B05286CD821680B
:100A40000868C007F6D1086848F23F02CFF21002EA
:100A5000D4E90135024004F10C0E9EE8C1511A435D
:100A60002A4310433043384340EA0800626A40EAB0
:100A70000C00042A40EA0E0320D1D4E90A5E206B60
:100A80004EEA0302104308604869BEF1000F20F0EF
:100A9000030040EA050040F0040C15D0B8F5005FF3
:100AA00042D0B8F1000F51D1022D52D0012D47D0C4
:100AB00055B94EE00120BDE8F08100BF0B604869E8
:100AC00020F0070040EA020C6FF00F004AF6AB225C
:100AD00050FA81F0CAF6AA22A0FB02231A0943F6B3
:100AE000AC73C0F600039A5C40F2FF335F284FF00E
:100AF0003F00C1F814C021EA030100FA02F088BFE8
:100B00000431C4E9161288600023012200206365C5
:100B100084F83520BDE8F08103222023032063659B
:100B200084F83520BDE8F081032DCDD80122402383
:100B30000120DFE805F0030E030500BFE7E700BF73
:100B4000AEF1C070B0FA80F0400904E0032D04D388
:100B5000BAD1CEF300600028B6D001224023012094
:100B6000636584F83520BDE8F081000070B590F829
:100B700034C0BCF1010F46D04FF0010C80F834C0F6
:100B8000D0F858E090F835C0BCF1010F38D14FF0E3
:100B9000020C80F835C04FF0000CC0F854C0D0F8FB
:100BA00000C08468056CC06DDCF80060402C26F441
:100BB0008026CCF80060CCF804300B4604BF134606
:100BC0000A463F2101FA00F0CCF80830CCF80C209E
:100BD000CEF80800DCF8000040F01600CCF8000069
:100BE0002DB1DCF8000040F00800CCF80000DCF883
:100BF000000040F00100CCF80000002070BD00BFF4
:100C0000002180F83410022070BD00002DE9F04F63
:100C100082B000F13E4241F6004502F1FF77C4F296
:100C2000020508224FEAB726A84208BF0722072E6E
:100C300038BF4FEAB7224FF0010A002400274FF0D7
:100C40000008009208E000BF023708F10108202FD9
:100C500004F1040400F0B4800E680AFA08F916EAF8
:100C6000090FF1D0D1F804A00AF0030BABF1010693
:100C7000012E17D80322866802FA07FECA6826EA00
:100C80000E06BA40324382604268CAF3001522EA77
:100C9000090205FA08F54FEA480C6FEA0E062A43E6
:100CA00042600BE00322BA40D643BBF1030FBC46BF
:100CB00004D1BC464FF0030B22E000BFC2688D6830
:100CC000324005FA0CF52A43BBF1020FC26017D17E
:100CD0006FF0030202EA5802024404F01C030F25DD
:100CE000D2F820E005FA03FA0D692EEA0A0E05FA99
:100CF00003F343EA0E031362D1F804A00AF0030BD6
:100D000002680BFA0CF332401A431AF4403F4FF0DA
:100D1000010A026098D0002243F644030192C4F213
:100D200002031A6843F6004E42F480421A601A68C1
:100D3000C4F2010E02F480420192019A28F00302EB
:100D40004FF6084C7244CFF6FF7C52F80C3004F09A
:100D50000C060F25B540AB43009D05FA06F633435C
:100D600042F80C30DEF808204B6842EA090643F6E8
:100D70000C4CDD0258BF22EA0906CEF80860C4F226
:100D8000010CDCF800209D0242EA090658BF22EA65
:100D90000906CCF80060DEF804209D0342EA09064B
:100DA00058BF22EA0906CEF80460DEF80020DB0313
:100DB00042EA090658BF22EA0906CEF8006043E776
:100DC00002B0BDE8F08F0000002A08BF090481616D
:100DD0007047000040F60060C2F2000000687047F3
:100DE00040F2040040F60061C2F20000C2F20001CD
:100DF00000780A68104408607047000080B543F628
:100E00000040C4F20200016841F400710160016811
:100E100041F480610160016841F480710160032048
:100E200000F084F80F2000F005F800F027F800200B
:100E300080BD000070B540F20406C2F2000640F228
:100E40000C013278C2F200014FF47A730968B3FBE7
:100E5000F2F20446B1FBF2F1084600F041FB0F2C20
:100E60004FF0010508D838B94FF0FF302146002275
:100E7000002500F02FF87460284670BD82B0002075
:100E800043F640010190C4F202014A6842F48042F4
:100E90004A604A6802F480420192019A0090086810
:100EA00040F080500860086800F080500090009882
:100EB00002B07047002848BF704700F01F010122B0
:100EC00002FA01F14EF200124009CEF2000242F89D
:100ED0002010704710B54EF60C5CCEF2000CDCF81A
:100EE0000030C3F3022E8EF00704042C28BF042424
:100EF000BEF103034FF0FF3E0EFA04F438BF0023A7
:100F0000A14399400EFA03F39A43114300F00F02F4
:100F1000043A624409010C3200F16043B0F1FF3F32
:100F2000C8BF03F56442117010BD00004EF60C51AD
:100F3000CEF200010A684FF6FF031A4060F30A225E
:100F400042F0806040F0FD70086070472DE9F0418C
:100F5000002800F08B8043F60808C4F2020804461B
:100F6000D8F8F8030D4600F00700884207D288F849
:100F7000F853D8F8F80300F00700A84276D12068AB
:100F8000810717D5410705D5D8F8001041F4E05185
:100F9000C8F80010010705D5D8F8001041F46041E9
:100FA000C8F80010D8F80010A26821F0F001114331
:100FB000C8F80010C0073FD1D8F8F80300F00700C8
:100FC000A84207D988F8F853D8F8F80300F00700CA
:100FD000A8424BD12068410707D5D8F80010E26835
:100FE00021F4E0511143C8F80010000708D5D8F8E3
:100FF0000000216920F4604040EAC100C8F8000008
:1010000000F07CF8D8F8001043F69472C1F3031195
:10101000C0F60002515C40F20C0220FA01F140F2ED
:101020000800C2F200000068C2F200021160FFF77F
:1010300001FF0020BDE8F0816068811E022907D20F
:1010400058F8081C89015CBF0120BDE8F08111E05F
:10105000012807D158F8081C89035CBF0120BDE8AE
:10106000F08107E058F8081C890703D40120BDE887
:10107000F08100BFD8F8001021F003010843C8F840
:101080000000FFF7A7FE064641F28837D8F80000B7
:10109000616800F00C00B0EB810F8DD0FFF79AFE75
:1010A000801BB842F2D90320BDE8F08140F20C0069
:1010B00043F60801C2F20000C4F2020100680968A8
:1010C00043F6A472C1F38221C0F60002515CC8400D
:1010D0007047000040F20C0043F60801C2F2000025
:1010E000C4F202010068096843F6A472C1F34231F8
:1010F000C0F60002515CC8407047000010B543F6CE
:101100000404C4F20204606800F00C0142F20040E2
:101110000829C0F2F40007D0042918BF10BD41F21D
:101120000020C0F27A0010BD216801F03F02216862
:1011300023684902C3F3881106D4A1FB00010023F0
:10114000FFF73EF807E000BF41F20020C0F27A004E
:101150004843B0FBF2F021680222C1F3014102EBE7
:101160004101B0FBF1F010BD2DE9F04182B0002843
:101170006AD00446007843F60006C007C4F20206AF
:101180000BD0B06800F00C00042840F0A18030685B
:10119000800302D56068002856D0207880071AD5D1
:1011A000B06810F00C0F09D0B06800F00C000828EF
:1011B00040F0A8807068400200F1A4803068800789
:1011C00002D5E06801283FD13068216920F0F8009D
:1011D00040EAC10030602078000739D42078400709
:1011E0004ED4A5695DB3B06800F00C00082840F04B
:1011F000BD80012D28D07068E16900F480028A4228
:1012000022D1216A00F03F028A421DD147F6C07107
:10121000626A0140B1EB821F16D1A26A0023CFF6A9
:10122000FF7303EBC23200F440316FF30F029142BF
:101230000AD1E16A00F07060B0EB016F04D10020C8
:1012400002B0BDE8F08100BF012002B0BDE8F0812E
:101250006069002840F20000C4F2472076D00121E6
:10126000C0F8801EFFF7B6FD054600BF706F80070F
:10127000B4D4FFF7AFFD401B0228F7D9DDE000BF73
:10128000306C10F080580AD100200190306C40F092
:1012900080503064306C00F080500190019847F22B
:1012A0000007C4F200073868C00541D4386840F42C
:1012B00080703860FFF78EFD054600BF3868C005B6
:1012C00036D4FFF787FD401B0228F7D9B5E000BFF1
:1012D000B06800F00C00082803D1706840023FF5A8
:1012E00056AF6068B0F5803F07D0B0F5A02F40F052
:1012F0008D80306840F480203060306840F4803069
:1013000030608DE0E068002852D00020C4F2472011
:1013100001210160FFF75EFD054600BF30688007D0
:101320003FF552AFFFF756FD401B0228F6D984E087
:10133000A068012805D005284ED1306F40F0040088
:101340003067306F40F0010030674FE00021C0F897
:10135000801EFFF73FFD0546706F80077FF53EAFAB
:10136000FFF738FD401B0228F6D966E00027C4F2DB
:10137000472700203866FFF72DFD022D05460BD1CB
:10138000306880015ED5FFF725FD401B02284FF035
:101390000300F5D954E700BF306880017FF54FAFF7
:1013A000FFF718FD401B02284FF00300F4D947E770
:1013B0000020C4F2472000210160FFF70BFD054625
:1013C000306880077FF507AFFFF704FD401B022858
:1013D0004FF00300F4D933E7316F002821F0010109
:1013E0003167316F21F0040131674DD0FFF7F2FC16
:1013F000054641F2883700BF306F800756D4FFF7AB
:10140000E9FC401BB842F7D917E000BF316800285B
:1014100021F480313160316821F4802131604FD076
:10142000FFF7D8FC054600BF306880033FF5B5AE36
:10143000FFF7D0FC401B6428F6D9032002B0BDE8BA
:10144000F08100BF04F11C052FCD08430021CFF629
:10145000FF7140EA821001EBC3316FF30F0140EAE4
:1014600005600843706001203866FFF7B3FC04464E
:10147000306880013FF5E3AEFFF7ACFC001B0228AB
:101480004FF00300F4D9DBE6FFF7A4FC054641F278
:10149000883700BF306F800708D5FFF79BFC401BE3
:1014A000B8424FF00300F5D9CAE600BFB8F1000F0B
:1014B0007FF497AE306C20F08050306491E600BF2E
:1014C000FFF788FC054600BF306880037FF565AEF6
:1014D000FFF780FC401B64284FF00300F4D9AFE60F
:1014E000411E0020B0EB116F1CBF012070474EF26F
:1014F0001002CEF2000251604EF62351CEF20001EE
:10150000F0230B7007219060116070477047000056
:101510007047000010B590F83C20012A4FF00202FD
:1015200051D080F83D200268D2F804E0D2F808C01B
:101530000C682EF07003234341F2FF74C4F20004E0
:10154000A24253600EDC40F2FF73C4F200039A42E1
:1015500016DCB2F1804F2BD040F20043C4F20003FE
:1015600024E000BF40F2FF33C4F201039A4213DCCF
:1015700041F60003C4F200039A4219D0002313E09D
:1015800040F60003C4F200039A4211D040F6004333
:10159000C4F200030AE000BF44F20003C4F20103F6
:1015A0009A4205D040F20043C4F201039A4204D1AA
:1015B00049682CF08003194391600121002280F8D2
:1015C0003D1080F83C20104610BD0000002804BFEC
:1015D0000120704710B5044690F83D0028B900205E
:1015E00084F83C00204600F01FF8022084F83D00FB
:1015F0002068211D01F03EF8012084F8460084F89F
:101600003E0084F83F0084F8400084F8410084F8EC
:10161000420084F8430084F8440084F8450084F8CC
:101620003D00002010BD000080B582B0006841F28E
:101630000041C4F2000188421CBF02B080BD0020FE
:10164000019043F64000C4F202000168002241F01C
:10165000200101600068002100F020000190019845
:101660003720FFF737FC372002B0BDE88040FFF796
:1016700021BC000090F83D1001291CBF01207047DB
:10168000022180F83D10006841F2FF72C168C4F287
:101690000002904241F00101C1600DDC40F2FF7197
:1016A000C4F20001884215DCB0F1804F2AD040F22C
:1016B0000041C4F2000123E040F2FF31C4F2010115
:1016C000884213DC41F60001C4F20001884219D0BF
:1016D000002113E040F60001C4F20001884211D05D
:1016E00040F60041C4F200010AE000BF44F20001EC
:1016F000C4F20101884205D040F20041C4F2010168
:10170000884206D1816801F00701062904BF002044
:101710007047016841F0010101600020704700003E
:101720007047000010B5016804460869800744BF8F
:10173000C8685FEA807039D40869400744BFC86848
:101740005FEA40703ED40869000744BFC8685FEA9A
:10175000007045D40869C00644BFC8685FEAC0602D
:101760004AD40869C0071CBFC8685FEAC07051D17D
:101770000869000644BFC8685FEA006052D408697F
:10178000400644BFC8685FEA406053D408698006D9
:1017900046BFC8685FEA806010BD6FF02002204637
:1017A0000A61BDE81040FFF7B3BE00BF6FF0020052
:1017B0000861012020778869800743D02046FFF721
:1017C000AFFF45E06FF004000861022020778869D0
:1017D00010F4407F40D02046FFF7A2FF42E000BF58
:1017E0006FF00800086104202077C86980073DD0A9
:1017F0002046FFF795FF3FE06FF0100008610820DA
:101800002077C86910F4407F3AD02046FFF788FF60
:101810003CE000BF6FF001000861204600F03EF898
:101820002168A5E76FF0800008612046FFF76EFE93
:101830002168A4E76FF040000861204600F04AF8F4
:101840002168A3E7204600F025F8204600F024F8A0
:101850002168002020776FE7204600F01BF8204623
:1018600000F01AF82168002020776CE7204600F08D
:1018700011F8204600F010F821680020207769E771
:10188000204600F007F8204600F006F82168002006
:10189000207766E77047000070470000006841F25B
:1018A0000041C4F20001884218BF704740F2740042
:1018B000C2F200004168052909D140F22802C2F2B3
:1018C0000002116881600021116001224270013123
:1018D000416070477047000070470000704700008B
:1018E000B0B582B0044600680168C368426901F07F
:1018F0002F05202D03F0200506D12DB1204602B082
:10190000BDE8B04001F0D0B85FEA017C1EBF02F034
:10191000010E03F4907212EB0E0255D1226B012AD4
:1019200005D111F0100218BF13F0100236D10A06CB
:1019300022D513F080021FD094F83D10212941D107
:10194000A168B1F5805F03D12169002900F06C82A4
:10195000216A4A1C226209784160E18C01390A043B
:10196000E1842FD1C16821F08001C160C16841F0DC
:101970004001C16002B0B0BD490623D513F040015B
:1019800020D0C16821F04001C1602021204684F8A8
:101990003D1002B0BDE8B04000F02CBD0021019127
:1019A000016801914168019101994169490600F17D
:1019B0008B80A18DE28DE38D002B1CBF891A5FEA1D
:1019C00001420CD102B0B0BDCA0718BF13F4807237
:1019D00040F032814A0700F135813AE1206850E851
:1019E000030F226820F4907042E80303DBB1206803
:1019F00050E8030F226820F4907042E8030393B18B
:101A0000206850E8030F226820F4907042E8030336
:101A10004BB1206850E8030F226820F4907042E830
:101A20000303002BDAD1206850E8050F226820F06C
:101A3000010042E80503DBB1206850E8050F226889
:101A400020F0010042E8050393B1206850E8050F3B
:101A5000226820F0010042E805034BB1206850E8FD
:101A6000050F226820F0010042E80503002BDAD1BF
:101A7000202084F83E0000202063206850E8030FF7
:101A8000226820F0100042E80303DBB1206850E830
:101A9000030F226820F0100042E8030393B120688E
:101AA00050E8030F226820F0100042E803034BB116
:101AB000206850E8030F226820F0100042E803037A
:101AC000002BDAD189B2B0E0A26B11684B689DB2ED
:101AD000002D3FF477AFA18D8D42BFF473AFE38546
:101AE000D269B2F5807F00F09D8050E8030F216835
:101AF00020F4807041E80302E2B1206850E8030F4F
:101B0000216820F4807041E803029AB1206850E80F
:101B1000030F216820F4807041E8030252B120686D
:101B200050E8030F216820F4807041E803020AB1F5
:101B30002068DAE7206850E8050F216820F00100EE
:101B400041E80502DAB1206850E8050F216820F06D
:101B5000010041E8050292B1206850E8050F2168B4
:101B600020F0010041E805024AB1206850E8050F65
:101B7000216820F0010041E80502002ADAD120683E
:101B800050E8050F216820F0400041E80502DAB175
:101B9000206850E8050F216820F0400041E8050268
:101BA00092B1206850E8050F216820F0400041E81C
:101BB00005024AB1206850E8050F216820F0400076
:101BC00041E80502002ADAD1202084F83E000020F6
:101BD0002063206850E8030F216820F0100041E8DE
:101BE0000302DAB1206850E8030F216820F01000EA
:101BF00041E8030292B1206850E8030F216820F009
:101C0000100041E803024AB1206850E8030F216840
:101C100020F0100041E80302002ADAD1A06BFEF7A1
:101C2000B7FDA18DE08D081A81B2204602B0BDE853
:101C3000B040FFF751BE00BF226C42F001022264A7
:101C40004A0706D5BEF1000F03D0226C42F0020213
:101C500022648A0706D5BEF1000F03D0226C42F041
:101C600004022264BCF1000F06D555EA0E0203D02F
:101C7000226C42F008022264226C002A3FF4A2AED9
:101C800011F0200118BF002D03D0204600F00CFFFA
:101C900020684169226C01F0400102F008028918B5
:101CA00000F0A28050E8030F216820F4907041E812
:101CB0000302C2B3206850E8030F216820F490703B
:101CC00041E803027AB3206850E8030F216820F44A
:101CD000907041E8030232B3206850E8030F216896
:101CE00020F4907041E80302EAB12068DAE700BF0F
:101CF000206850E8050F216820F0010041E8050246
:101D0000DAB1206850E8050F216820F0010041E8B1
:101D1000050292B1206850E8050F216820F001000B
:101D200041E805024AB1206850E8050F216820F01B
:101D3000010041E80502002ADAD1206B012824D1F4
:101D4000206850E8030F216820F0100041E80302EA
:101D5000DAB1206850E8030F216820F0100041E854
:101D6000030292B1206850E8030F216820F01000B0
:101D700041E803024AB1206850E8030F216820F0CF
:101D8000100041E80302002ADAD1202084F83E0046
:101D9000002020632068416949063FD550E8050FBF
:101DA000216820F0400041E805022AB3206850E88D
:101DB000050F216820F0400041E80502E2B12068EB
:101DC00050E8050F216820F0400041E805029AB173
:101DD000206850E8050F216820F0400041E8050226
:101DE00052B12068DAE700BF2046FFF777FD0020F8
:101DF000206402B0B0BD00BFA06B78B142F2B171F7
:101E0000C0F600010165FEF70DFD00283FF4DAADD4
:101E1000A06B016D02B0BDE8B0400847204602B09B
:101E2000BDE8B040FFF75ABD216A31F8022B6FF3CD
:101E30005F224260216290E5002804BF01207047C4
:101E400010B5044690F83D0028B9002084F83C0005
:101E5000204600F021F8242084F83D002068C16865
:101E600021F40051C160204600F09EFE2068016907
:101E700021F490410161416921F02A014161C16869
:101E800041F40051C16000202021206484F83D10FD
:101E900084F83E1010BD000070B586B0044621687D
:101EA00044F60002C4F2000200209142CDE9040091
:101EB000CDE90200019051D044F20040C4F200008C
:101EC00081427ED1002643F630000096C4F2020023
:101ED000016941F400310161016901F400310091AF
:101EE00000990096016841F001010160006801A9B4
:101EF00000F00100009000980C2001900220CDE934
:101F0000020603200490072005900020C4F202007E
:101F1000FEF77CFE40F68C0546F28800C2F2000512
:101F2000C4F202004FF000614FF4806285E8430084
:101F30002846C5E90362C5E90566C5E907666E621C
:101F4000FEF762FD002818BFFEF71CFCA563AC631A
:101F500026200E21002226242EE000BF43F6300169
:101F60000090C4F202010A6942F480220A610A69FF
:101F700002F480220092009A00900A6842F0020265
:101F80000A60096801F00201009100994FF4406174
:101F900001910221CDE90210032004900720059051
:101FA0000020C4F2020000F5806001A9FEF72EFEB9
:101FB0002720002100222724FEF78CFF2046FEF771
:101FC00079FF06B070BD000070B582B0044690F88D
:101FD0003E0020280ED113460A4600294FF001008A
:101FE00018BF002B02D102B070BD00BF94F83C00B6
:101FF000012803D1022002B070BD00BF012084F887
:102000003C00002622202663A262A385266484F871
:102010003E002168A06B42F6391C42F6952E42F232
:10202000BD75C0F6000CC0F6000EC0F60005043108
:10203000C0E90FCEC0E91356FEF798FD019620685F
:1020400001680191416801910199216984F83C601E
:1020500031B300BF50E8030F216840F4807041E8BD
:102060000302EAB1206850E8030F216840F4807051
:1020700041E80302A2B1206850E8030F216840F450
:10208000807041E803025AB1206850E8030F2168CC
:1020900040F4807041E8030212B12068DAE700BF23
:1020A000206850E8050F216840F0010041E8050272
:1020B000E2B1206850E8050F216840F0010041E8D6
:1020C00005029AB1206850E8050F216840F0010030
:1020D00041E8050252B1206850E8050F216840F040
:1020E000010041E80502002ADAD100BF206850E86B
:1020F000050F216840F0400041E80502DAB1206890
:1021000050E8050F216840F0400041E8050292B117
:10211000206850E8050F216840F0400041E80502C2
:102120004AB1206850E8050F216840F0400041E8BE
:102130000502002ADAD1002002B070BD10B5006897
:1021400044F20041C4F20001884218BF10BD40F2C1
:102150007404C2F20004207801F00EFA40F6341044
:10216000C2F2000021460122BDE81040FFF72CBF5B
:10217000704700002DE9F04381B0044690F83D001F
:1021800020280DD10F4600294FF0010000F0DD801E
:102190001646002A00F0D98094F83C00012803D1AB
:1021A000022001B0BDE8F083012084F83C004FF02C
:1021B000000921201D46C4F8409084F83D00FEF738
:1021C00009FEA684E684A1680646B1F5805F07D1C2
:1021D000206900281CBF38464F46B846074601E034
:1021E0004FF0000884F83C90E18C2068002900F052
:1021F0008B8005F101090AE047B317F8011B416024
:10220000E18C0139E184E18C002900F07D800168D6
:102210000906F1D4B9F1000F0AD0EDB1FEF7DAFDED
:10222000801BA84218D8206801680906F6D5E3E7A4
:1022300001680906E0D4016809065CBF01685FEA2D
:102240000161D9D401680906F2D5D5E738F8021B37
:1022500000276FF35F21D2E7206850E8030F216861
:1022600020F4D07041E80302BAB3206850E8030FAD
:10227000216820F4D07041E8030272B3206850E86E
:10228000030F216820F4D07041E803022AB32068CC
:1022900050E8030F216820F4D07041E80302002ABF
:1022A000DAD11AE0206850E8050F216820F001001B
:1022B00041E80502DAB1206850E8050F216820F0F6
:1022C000010041E8050292B1206850E8050F21683D
:1022D00020F0010041E805024AB1206850E8050FEE
:1022E000216820F0010041E80502002ADAD120200F
:1022F00084F83D0084F83E00002084F83C00032070
:1023000001B0BDE8F08300BF0168490619D4FDB1F2
:10231000691C0DD10168490613D4016849065CBFE8
:1023200001685FEA41610CD401684906F2D508E012
:10233000FEF750FD801BA8420AD8206800684006BE
:10234000F6D5202084F83D00002001B0BDE8F083E0
:10235000206850E8030F216820F4D07041E80302A0
:10236000E2B3206850E8030F216820F4D07041E800
:1023700003029AB3206850E8030F216820F4D0705C
:1023800041E8030252B3206850E8030F216820F4AB
:10239000D07041E80302002ADAD11FE0206850E83B
:1023A000050F216820F0010041E80502002A9ED0B7
:1023B000206850E8050F216820F0010041E805027F
:1023C000002A3FF494AF206850E8050F216820F000
:1023D000010041E80502002A3FF489AF206850E877
:1023E000050F216820F0010041E80502002AD5D13F
:1023F0007DE7000070470000FEE7000080B582B076
:102400000020019043F63000C4F20200016800226F
:1024100041F4001101600068002100F400100190F7
:1024200001981020FEF756FD102002B0BDE8804054
:10243000FEF740BD70B586B0002543F63000059527
:102440000095C4F20200016840F6004441F08001AA
:1024500001600168C4F2020401F08001009100995A
:1024600000950168002241F00101016001684FF40C
:10247000805601F00101009100990095016841F03A
:1024800002010160016801F00201009100990095CC
:10249000016841F00801016000684FF4805100F0CC
:1024A0000800009000982046FEF78EFC0120CDE940
:1024B000020501A9204601960495FEF7A7FB06B088
:1024C00070BD000080B582B040F6EC0041F20042E1
:1024D0000021C2F20000C4F2000240F24F134CF29D
:1024E0004F3CCDE90011C0E90023C0E9021C816125
:1024F000FFF76CF8002818BFFEF744F940F6EC002F
:10250000C2F200006946FFF705F8002818BFFEF781
:1025100039F902B080BD000080B540F6341044F2B5
:102520000041C2F20000C4F2000100234FF00C0C85
:102530004FF4E13280E80E00C0E90333C0E905C37F
:10254000C361FFF779FC002808BF80BDBDE880406B
:10255000FEF718B980B540F6781044F60001C2F2D3
:102560000000C4F2000100234FF00C0C4FF4E132E4
:1025700080E80E00C0E90333C0E905C3C361FFF77B
:102580005BFC002808BF80BDBDE88040FEF7FAB8BC
:10259000FEE70000FEE70000704700007047000003
:1025A000FEF71EBCB0B592B0002443F64000CDE962
:1025B0000A44CDE908440594CDE90344CDE901443A
:1025C0000094C4F202000168022541F080510160CC
:1025D000006800F080500090009847F200000094DE
:1025E000C4F20000016841F4804101600068A82144
:1025F00000F4804000900098012006904FF4803055
:1026000007904FF480000D9004200E90119006A8C2
:102610000C95CDE90F15FEF7A7FD28B1EFF310805B
:1026200072B600BFFEE700BF0F20CDE901054FF4F1
:10263000A05004904FF48050059001A80521039408
:10264000FEF784FC20B1EFF3108072B6FEE700BF06
:1026500012B0B0BD4EF68850CEF20000016841F4D1
:10266000700101607047000040F6EC00C2F200000B
:10267000FFF758B810B540F6FF3E0368C4F2000EED
:1026800040F2004C7045C4F2010C27DCB0F1804FE1
:1026900031D040F20042C4F2000290422BD040F60A
:1026A0000002C4F20002904225D041F6FF72C4F24B
:1026B0000002904229DC70453CDCB0F1804F5FD0D5
:1026C00040F20042C4F20002904259D040F60002AB
:1026D000C4F20002904253D056E000BF40F60042E0
:1026E000C4F20002904206D0604504D00022C4F239
:1026F00001029042D9D14A6823F07003134341F696
:10270000FF72C4F200029042D5DD43F6FF72C4F2BC
:102710000102904222DC42F20002C4F20002904226
:102720002ED00022C4F20102904229D0604527D069
:102730002AE000BF40F60042C4F2000290421FD0DF
:1027400041F60002C4F20002904219D041F6004264
:10275000C4F20002904213D016E000BF44F200021F
:10276000C4F2010290420BD044F60002C4F201020E
:10277000904205D044F20042C4F20102904203D1DB
:10278000CA6823F44073134323F080024B69D1F8E5
:1027900000E08C681A430260C46240F48062C0F8B2
:1027A00028E0624504BF096901630121416110BD50
:1027B000806B0021C185C184FFF790B8806B0168F0
:1027C0004A6990F83D30212B2ED112F080022BD097
:1027D0000022C28451E8031F026821F0C00142E8D0
:1027E0000313EBB1016851E8031F026821F0C00137
:1027F00042E80313A3B1016851E8031F026821F006
:10280000C00142E803135BB1016851E8031F02688D
:1028100021F0C00142E8031313B10168DAE700BFF9
:10282000202180F83D1001684A6990F83E30222B43
:102830007CD112F0400279D00022C28551E8031FFA
:10284000026821F4907142E80313C3B3016851E8B0
:10285000031F026821F4907142E803137BB30168FF
:1028600051E8031F026821F4907142E8031333B367
:10287000016851E8031F026821F4907142E80313D4
:10288000EBB10168DAE700BF016851E8051F026893
:1028900021F0010142E80513DBB1016851E8051F91
:1028A000026821F0010142E8051393B1016851E883
:1028B000051F026821F0010142E805134BB10168D0
:1028C00051E8051F026821F0010142E80513002BC1
:1028D000DAD1016B012924D1016851E8031F026894
:1028E00021F0100142E80313DBB1016851E8031F36
:1028F000026821F0100142E8031393B1016851E826
:10290000031F026821F0100142E803134BB1016874
:1029100051E8031F026821F0100142E80313002B65
:10292000DAD1202180F83E1000210163016C41F0D2
:1029300010010164FEF7D2BF0168806B0968C90508
:1029400000F19F800021C185016851E8031F0268E2
:1029500021F4807142E80313E3B1016851E8031FD9
:10296000026821F4807142E803139BB1016851E8C9
:10297000031F026821F4807142E8031353B1016818
:1029800051E8031F026821F4807142E80313002B11
:10299000DAD100BF016851E8051F026821F001018A
:1029A00042E80513BBB3016851E8051F026821F036
:1029B000010142E8051373B3016851E8051F02687D
:1029C00021F0010142E805132BB3016851E8051F0E
:1029D000026821F0010142E80513002BDAD11AE068
:1029E000016851E8051F026821F0400142E8051323
:1029F000DBB1016851E8051F026821F0400142E89F
:102A0000051393B1016851E8051F026821F04001E8
:102A100042E805134BB1016851E8051F026821F037
:102A2000400142E80513002BDAD1202180F83E1046
:102A3000016B012925D100BF016851E8031F02681D
:102A400021F0100142E80313DBB1016851E8031FD4
:102A5000026821F0100142E8031393B1016851E8C4
:102A6000031F026821F0100142E803134BB1016813
:102A700051E8031F026821F0100142E80313002B04
:102A8000DAD1016B012918BFFFF758BB818DFEF722
:102A900023BF0000806B016B012918BFFFF768BBE3
:102AA000818D4908FEF718BF81B090F83E102229A9
:102AB00020D18368B3F5805F08D10169002965D012
:102AC00000F128010A6803685B680AE0014651F8D2
:102AD000282F13B90369002BF5D003685B6803F056
:102AE0007F0313700A6801320A60C18D01390A043C
:102AF000C18501D001B070470168CA6822F0200288
:102B0000CA60CA6822F48072CA604A6922F001026F
:102B10004A61202280F83E20026B012A40D1002227
:102B2000026300BF51E8031F026821F0100142E870
:102B300003130168DBB151E8031F026821F01001A3
:102B400042E80313016893B151E8031F026821F0C2
:102B5000100142E8031301684BB151E8031F0268FA
:102B600021F0100142E803130168002BDAD10A6852
:102B7000D20606D5002200920A68009249680091A8
:102B80000099818D01B0FEF7A7BE00BF0168826A7F
:102B900049686FF35F2122F8021B8262A5E700BF3C
:102BA00001B0FFF7CBBA000010B504460068D4E9C5
:102BB00002C22369016921F4405111430161626934
:102BC00043EA0C01E3691143C268194349F20C63FB
:102BD0009A431143C1604169A26921F4407141F2F5
:102BE0000043114340F48062C4F201039A42416100
:102BF00002D1FEF76FFA01E0FEF758FAE169636867
:102C00001922B1F5004FA0FB02011FD15A00DB0FC2
:102C1000FDF7D6FA48F21F51C5F2EB11A0FB0123D4
:102C20005A096FF0630302FB0300322303EBC00079
:102C3000A0FB01014FF4F87000EA111000EB021044
:102C4000C1F3421108442168886010BD9A009B0FAF
:102C5000FDF7B6FA48F21F51C5F2EB11A0FB0123B4
:102C60005A096FF0630302FB0300322303EB0010E9
:102C7000A0FB0101F02000EA511000EB0210C1F3AB
:102C8000431108442168886010BD000040F63410EC
:102C9000C2F20000FEF724BE40F67810C2F2000037
:102CA000FEF71EBEFEE70000F0B540F2180CC2F2BF
:102CB000000CBCF80440002900F09E80012901F0BE
:102CC000010E05D10021BEF1000F00F0958066E0F5
:102CD00021F001014A426FF0010141F2210300BFDE
:102CE0004518AE78ED7884EA062483EA4406270482
:102CF00058BF660083EA4604370458BF740083EA6D
:102D00004406270458BF660083EA4604370458BFC8
:102D1000740083EA4406270458BF660083EA460429
:102D2000370458BF740083EA4406270458BF66007E
:102D300083EA4604370458BF740084EA052483EA12
:102D40004405260458BF650083EA45042E0458BF95
:102D50006C0083EA4405260458BF650083EA4504F5
:102D60002E0458BF6C0083EA4405260458BF650052
:102D700083EA45042E0458BF6C0083EA4405260408
:102D800058BF650083EA450402312E0458BF6C0029
:102D900055180235A4D10231BEF1000F2CD0405C91
:102DA00084EA002141F2210080EA41020B0458BF6D
:102DB0004A0080EA4201130458BF510080EA4102F0
:102DC0000B0458BF4A0080EA4201130458BF510067
:102DD00080EA41020B0458BF4A0080EA4201130412
:102DE00058BF510080EA41020B0458BF4A0080EAF4
:102DF0004204100458BF5400ACF80440F0BD000079
:102E00002DE9F04381B02DED048B86B040F22C0902
:102E1000C2F2000999F800100446C90703D061788E
:102E200062A000F035FC40F27400C2F2000081683C
:102E300064A000F02DFC99F8000081070ED4410732
:102E400029D4010745D4C10664D4800600F18480EA
:102E500006B0BDEC048B01B0BDE8F083261D61CE49
:102E6000FDF703FA074628468846FDF7FEF941ECD0
:102E7000180B3046FDF7F9F941EC100B57A03A4614
:102E800043468DED008B8DED020B00F001FC99F8AF
:102E900000004107D5D504F1100661CEFDF7E5F934
:102EA000074628468846FDF7E0F941EC180B304606
:102EB000FDF7DBF941EC100B51A03A4643468DED8E
:102EC000008B8DED020B00F0E3FB99F80000010789
:102ED000B9D504F11C0661CEFDF7C7F907462846AF
:102EE0008846FDF7C2F941EC180B3046FDF7BDF9F5
:102EF00041EC100B43F6B470C0F600003A4643466E
:102F00008DED008B8DED020B00F0C2FB99F80000F7
:102F1000C1069AD504F1280661CEFDF7A6F9074649
:102F200028468846FDF7A1F941EC180B3046FDF71D
:102F30009CF941EC100B43F6D770C0F600003A46FE
:102F400043468DED008B8DED020B00F0A1FB99F84F
:102F5000000080067FF57CAF04F13407C1CF246CFC
:102F6000FDF783F9804630460D46FDF77EF941ECCA
:102F7000180B3846FDF779F941EC190B2046FDF79F
:102F800074F941EC100B43F6FB70C0F600004246AA
:102F90002B468DEC048B8DED040B00F079FB06B015
:102FA000BDEC048B01B0BDE8F08300BF20202020E1
:102FB0004465766963652049443A2020252D3864AC
:102FC0000D0A00002020204672616D652052617458
:102FD000653A20253464487A0D0A0000202020201C
:102FE0002020204163632847293A0925382E33667B
:102FF0002025382E33662025382E33660D0A000032
:10300000202020677972286465672F73293A092583
:10301000382E32662025382E32662025382E32662C
:103020000D0A000080B582B0019040F67810C2F21F
:10303000000001A901224FF6FF73FFF79BF80198EA
:1030400002B080BD80B540F2800043F22911C2F287
:103050000000C0F6000100F00DFB002080BD000064
:10306000FDF7CCFEFFF79EFAFFF7E4F9FFF7C6F98C
:10307000FFF752FAFFF76EFAFFF724FA40F6EC007A
:10308000C2F20000FEF7F6FAFFF7DCFF40F274042C
:1030900040F63410C2F20004C2F2000021460122C0
:1030A000FEF792FF40F6BC17C2F2000740F230096B
:1030B00040F2000A002607F1040BC2F20009C2F236
:1030C000000A06E04846FFF79BFE0A20514600F042
:1030D00058FF60780128FCD1387866706228F1D1F9
:1030E00079780BA000F0D4FAB8780028F1D04FF02E
:1030F00000085D462846FFF783FE0A2000F044FFE3
:10310000B87808F10108804505F14405F2D3E0E7FD
:10311000202020202020202047572049443A2020EA
:10312000252D38640A0000002DE9F04F81B02DED07
:10313000068B82B0824690F80808A52840F01682D7
:10314000BAF8047840F22C0BC2F2000B0020002FDA
:103150008BF8000000F00A829FEDA68A9FEDA6AAD8
:103160000AF110044FF000086226B2EE049A00251E
:10317000019403E0B9454D4680F2F8810AEB050160
:10318000084610F8042FA2F19003412B00F26E8044
:10319000DFE813F074008000420042004200420069
:1031A000420042004200420042004200420042000F
:1031B00042004200900042004200420042004200B1
:1031C00042004200420042004200420042004200EF
:1031D00042004200460046004200420042004200D7
:1031E00042004200420042004200420042004200CF
:1031F00042004200B600420042004200420042004B
:1032000042004200420042004200420042004200AE
:1032100042004200DC00020105F10109AAE700BFFB
:1032200048F004088BF80080B0F90110B0F90320D1
:10323000B0F9050000EE101A01EE102A02EE100A95
:10324000B8EEC00AB8EEC11AB8EEC22A80EE090A7A
:1032500081EE091A82EE092A05F107098BED050AAC
:103260008BED061A8BED072A84E700BF622A00F077
:10327000A980F02AD0D105F105097BE79AF805006D
:1032800048F001088BF800808BF8050005F1020971
:1032900070E700BF4FF03F088BF800804879214667
:1032A0008BF805000BF108004022FCF7BAFF05F18E
:1032B0004C095FE748F002088BF80080B0F9011074
:1032C000B0F90320B0F9050000EE101A01EE102A43
:1032D00002EE100AB8EEC00AB8EEC11AB8EEC22A61
:1032E00080EE080A81EE081A82EE082A05F1070925
:1032F0008BED020A8BED031A8BED042A3AE700BF2F
:1033000048F008088BF80080B0F90110B0F90320EC
:10331000B0F9050000EE101A01EE102A02EE100AB4
:10332000B8EEC00AB8EEC11AB8EEC22A80EE090A99
:1033300081EE091A82EE092A05F107098BED080AC8
:103340008BED091A8BED0A2A14E700BF48F010082C
:103350008BF80080B0F90110B0F90320B0F9050036
:1033600000EE101A01EE102A02EE100AB8EEC00AA2
:10337000B8EEC11AB8EEC22A80EE0A0A81EE0A1A25
:1033800082EE092A05F107098BED0C0A8BED0B1A69
:103390008BED0D2AEEE600BF48F020088BF8008088
:1033A000D0F80110D0F80520D0F80930D0F80D0081
:1033B0000BF1380C8CE80E00CBF8440005F1110934
:1033C000D8E600BF40F6BC12C2F20002167048797F
:1033D00005F1080950708979002991703FF4CAAE4F
:1033E000481E03280AD200243F2711F0030563D1A9
:1033F000B4E000BF00007A440000C84201F0FC00C5
:1034000040F6BC16C0F100080024C2F200064FF0DE
:103410003F0900918BF800900AEB0507387B07F114
:1034200018013071787B4022707106F10800FCF7BA
:10343000F8FE8BF8009097F8580007F1640186F8C1
:10344000480097F85900402286F8490006F14C00E0
:10345000FCF7E7FE8BF8009097F8A40007F1B001A5
:1034600086F88C0097F8A500402286F88D0006F1BA
:103470009000FCF7D6FE8BF8009097F8F00007F16B
:10348000FC0186F8D00097F8F100402286F8D100C0
:1034900006F1D400FCF7C5FE043C06F58876A0458D
:1034A00005F59875B6D105F108000099644281468A
:1034B0003F2711F0030551D08BF800700AEB09018A
:1034C00040F6BC13087904EB0412C2F2000303EBCC
:1034D0008202107148791031507102F108004022C7
:1034E000FCF79FFE012D09F14C0037D00AF10406CC
:1034F000621C8BF80070311840F6BC1311F80C0BED
:1035000002EB0212C2F2000303EB8202107109EB1C
:10351000060898F84D00507102F108004022FCF7AF
:1035200080FE022D09F1980018D0A21C8BF80070C3
:10353000311840F6BC1311F80C0B02EB0212C2F268
:10354000000303EB8202107198F89900507102F1A8
:1035500008004022FCF765FE09F1E400BAF804789F
:10356000019C4FF03F088146622603E602B0BDECA5
:10357000068B01B0BDE8F08FB0B540F21805C2F27D
:1035800000052978062900F26E80DFE801F0050BBE
:10359000152131353F0000BF5A284FF0000065D19A
:1035A000012162E0E968A52881F808084FF00000D1
:1035B00018BFB0BD022158E0E968A1F8040840F244
:1035C0001001C2F200018870002003214DE000BF0D
:1035D000E968B1F8042842EA0022A1F8042840F280
:1035E0001001C2F20001C870002004213DE000BFBC
:1035F00068800020052138E0698841EA0020E968F8
:10360000688000200860A88006212EE0EA68116822
:103610004B1C11441360087110680021B1EBD02FCE
:1036200002D0012021E000BFB2F8041888421FD365
:1036300092F80808A5281BD140F21000C2F2000041
:103640000421FFF731FBEC68204650F8041BFFF71C
:103650002BFBA8886988884205D12869A9680130B0
:10366000286120468847002100202970B0BD00BF96
:103670000020B0BDB0B540F21805C2F20005A96047
:1036800040F60C010446FCF7E5FDEC60B0BD00001F
:103690000FB4054B10B503A9044A029800F0DAF8FC
:1036A00010BC5DF814FB000025300008000000206D
:1036B00002E008C8121F08C1002AFAD170477047FB
:1036C000002001E001C1121F002AFBD17047000059
:1036D0002DE9FF5F82B00021DDE90430020DDDF845
:1036E00040B0034318D044F61050A2F2FF324243D8
:1036F0001514119801281FD0A5EB0B00401C5FEAA0
:10370000000A4FF000064E4FDFF83891B0465046A1
:1037100015D5CAF1000413E0119801244AA3012829
:1037200001D16FEA0B010298119AC0E90031C0E99A
:10373000024206B0BDE8F09FCBF10000DFE704468F
:103740000021404A491842EB0450CDE9001012E034
:10375000E00707D032463B4640464946FCF774FE38
:103760008046894632463B4610461946FCF76CFEB9
:1037700006460F466410002CEAD1DDE90401DDE9BC
:103780000023BAF1000F06DAFCF75EFE42464B4614
:10379000FCF75AFE05E0FCF7C9FE42464B46FCF733
:1037A000C5FE04460E460022284BFCF747FF03D80F
:1037B0004FF0FF30014607E00022254B20463146FE
:1037C000FCF79BFDFCF721FF102409E0002C0ADB2D
:1037D0000A220023FCF7F4FC039B30321A55641EC6
:1037E00050EA0102F2D1641C039AC4F1110314449B
:1037F000119A012A03D0012208430DD10AE008439F
:1038000004D000204FF0110B119072E7A3EB0B05D1
:103810006D1E0DE05B4504DD4FF0000205F1010572
:1038200004E003DA4FF00002A5F10105002AECD014
:1038300002981199C0E90231C0E9004579E700001A
:10384000000014400000F03F300000000000F04392
:103850000000E03F2DE9FF4F95B09B4689460646A4
:1038600000250FE2252877D100242746F84A0121B8
:10387000059400E0044316F8013F203B01FA03F0F1
:103880001042F7D130782A2811D06FF02F0330780A
:10389000A0F13002092A16D8059A44F0020402EB7E
:1038A000820203EB42021044761C0590EFE759F8C0
:1038B000042B0592002A03DA504244F40054059088
:1038C00044F00204761C30782E2816D116F8010F29
:1038D00044F004042A280DD06FF02F023078A0F1B4
:1038E0003003092B09D807EB870302EB4303C71802
:1038F000761CF3E759F8047B761C30786C280FD0DF
:1039000006DC4C2817D068280DD06A2814D104E0B2
:10391000742810D07A280FD10DE044F400140AE086
:1039200044F4801401E044F440147278824202D1DD
:1039300004F58014761C761C307866280BD013DCD6
:10394000582877D009DC002875D04528F6D04628BD
:10395000F4D047281AD19DE118E0632835D06428B7
:1039600079D0652812D195E1702873D008DC6728DA
:10397000F1D069286FD06E280DD06F2806D1B5E040
:1039800073282CD0752875D0782874D05A4617998A
:1039900090476D1C75E1C4F30250022809D003283A
:1039A0000DD0D9F8001004280DD00D6009F10409DC
:1039B00067E1D9F80010EA17C1E90052F6E7D9F833
:1039C00000100D80F2E70D70F0E719F8041B8DF878
:1039D000001000208DF80100EA46012003E059F8AC
:1039E00004AB4FF0FF3061074FF0000102D40DE04F
:1039F00008F101018846B9420FDA8045F8DB1AF870
:103A000008100029F4D108E008F10101884681423C
:103A1000FADB1AF808100029F6D105985B46A0EBEE
:103A2000080721463846179A00F094FA284400EB1C
:103A3000080507E04DE029E10DE01AF8010B5A46B0
:103A400017999047B8F10108F7D25B4621463846EE
:103A5000179A13E142E00A220092C4F302524FF097
:103A6000000A022A08D059F804CB032A4FEAEC7165
:103A70000AD00DE029E02AE009F1070121F0070250
:103A8000F2E802C1914609E00FFA8CFC4FEAEC71B2
:103A9000042A03D14FFA8CFC4FEAEC71002907DAB3
:103AA0000A460021DCF1000C61EB02012D2202E04C
:103AB000220504D52B228DF80420012203E0E20721
:103AC00001D02022F7E7904659E00A2102E01022B7
:103AD0000DE010214FF0000A00910BE010224FF092
:103AE000000A44F004040827009203E008224FF083
:103AF000000A0092C4F30252022A05D059F804CBFE
:103B00000021032A08D009E009F1070121F007028A
:103B1000F2E802C1914605E01FFA8CFC042A01D1AB
:103B20000CF0FF0C4FF00008220728D5702806D0B3
:103B3000009B83F0100353EA0A0305D00EE04022F5
:103B40008DF80420012208E05CEA010206D0302250
:103B50008DF804208DF8050002229046009B83F02A
:103B6000080353EA0A030AD15CEA010201D16207A1
:103B700005D530228DF804204FF001087F1E58280B
:103B800004D034A003900EA802900DE036A0F9E70F
:103B900053466046009AFCF713FB84460398825C08
:103BA0000298401E029002705CEA0100F0D1029877
:103BB00006A9081A00F1200A600702D524F480340F
:103BC00000E00127574502DDA7EB0A0000E00020D6
:103BD00000EB0A01009005984144401A0590E0036B
:103BE00006D45B462146179A059800F0B3F90544C0
:103BF000002706E001A85A46C05D179990476D1C42
:103C00007F1C4745F6DBE0030CD55B462146179A3F
:103C1000059800F09FF9054404E030205A461799B2
:103C200090476D1C0099481E00900029F5DC08E0C3
:103C3000029802995A460078491C029117999047B8
:103C40006D1CBAF10001AAF1010AF1DC65E1000086
:103C50000928010030313233343536373839616262
:103C60006364656600000000303132333435363726
:103C700038394142434445460000000000F058F9FD
:103C80000544761C307800287FF4ECAD19B0284646
:103C9000BDE8F08F620700D4062709F1070222F081
:103CA000070CFCE80223E14603F000485FEA080C39
:103CB00002D00FF2702C0DE05FEA045C02D50FF227
:103CC000682C07E05FEAC47C02D00FF2602C01E0B0
:103CD000AFF2700C4FF0FF3823F00043CDF850C026
:103CE00065280CD006DC452809D046281DD0472879
:103CF0003DD13DE0662818D067287ED138E000210C
:103D0000112F01DB112000E0781CCDE9000106A98C
:103D10000EA8FFF7DDFCDDE90F010E9A03910021EB
:103D2000009207F1010A04914DE04FF00040009726
:103D3000CDE9011006A90EA8FFF7CAFCDDE90F02C4
:103D400003920E9B11990022DDF80CA000930492BF
:103D500011B9791C00EB010AB7EB0A0004D4C0F1D9
:103D6000FF3007F1010A0490AAEB0700019044E03C
:103D7000012F00DA01270021112F01DD112000E0C1
:103D80003846CDE9000106A90EA8FFF7A1FCDDE940
:103D90000F010E9A0391002104910092BA46210767
:103DA0000CD40399514500DA8A46BAF1010F05DDBA
:103DB000009AAAF10101515C302908D0B84202DA18
:103DC00010F1040F06DA0121CDE9011015E0AAF186
:103DD0000101E9E7002805DC049901440491AAEBFC
:103DE000000102E0411C514500DD8A460499401A59
:103DF000401C01904FF000400290200704D401982D
:103E0000504501DBCDF8048000208DF84F0002986A
:103E10000DF14F07B0F1004F25D02B200E900298E6
:103E20004FF0020800280CDA404202902D200E903C
:103E300007E00A210298FCF72BFA3031029007F8CC
:103E4000011DB8F10001A8F10108F2DC0298002878
:103E5000EFD1791E0E980870307800F0200040F005
:103E6000450007F8020D12A8C01B00F107081498BE
:103E7000007800B1012000EB0A01019801EBE0712C
:103E800005984144401A401E0590E00306D45B4665
:103E90002146179A059800F05DF8054414980078BB
:103EA00018B15A46179990476D1CE00324D55B461C
:103EB0002146179A059800F04DF805441CE0049837
:103EC000002807DBDDE90301884203DD0098405C40
:103ED000179901E0179930205A469047049805F148
:103EE0000105401C04900198401E019004D12E2031
:103EF0005A46179990476D1CBAF10001AAF1010AC0
:103F0000DDDC05E017F8010B5A46179990476D1C48
:103F1000B8F10001A8F10108F4DC5B462146179ACC
:103F20000598ABE62D0000002B00000020000000EB
:103F30002DE9F041044600251E461746880404D4A6
:103F400005E039462020B0476D1C641EF9D528468F
:103F5000BDE8F0812DE9F041044600251E4690465B
:103F6000C80301D5302700E02027880404D505E0E8
:103F700041463846B0476D1C641EF9D52846BDE859
:103F8000F081FFF74FB800000149FFF74BB8000080
:103F900000000020000000000000000001020304F7
:103FA00006070809000000000102030400061016BD
:103FB000000610162020202020206D6167287554EF
:103FC000293A0925382E32662025382E32662025DA
:103FD000382E32660D0A0020202065756C2852208C
:103FE000502059293A202025382E32662025382E97
:103FF00032662025382E32660D0A007175617428EC
:104000005720582059205A293A202025382E336627
:104010002025382E33662025382E33662025382E6D
:1040200033660D0A00000000484000080000002030
:1040300018000000B036000860400008180000209A
:10404000F0110000C0360008000000000100000070
:10405000100000000024F4005AA500000000000039
:040000050800018965
:00000001FF
